{
    "contractName": "SimpleStorage",
    "abi": [
        {
            "inputs": [
                {
                    "internalType": "string",
                    "name": "_name",
                    "type": "string"
                },
                {
                    "internalType": "uint256",
                    "name": "_favNum",
                    "type": "uint256"
                }
            ],
            "name": "addPerson",
            "outputs": [],
            "stateMutability": "nonpayable",
            "type": "function"
        },
        {
            "inputs": [],
            "name": "favoriteNumber",
            "outputs": [
                {
                    "internalType": "uint256",
                    "name": "",
                    "type": "uint256"
                }
            ],
            "stateMutability": "view",
            "type": "function"
        },
        {
            "inputs": [
                {
                    "internalType": "string",
                    "name": "",
                    "type": "string"
                }
            ],
            "name": "nameToFavouriteNumber",
            "outputs": [
                {
                    "internalType": "uint256",
                    "name": "",
                    "type": "uint256"
                }
            ],
            "stateMutability": "view",
            "type": "function"
        },
        {
            "inputs": [
                {
                    "internalType": "uint256",
                    "name": "",
                    "type": "uint256"
                }
            ],
            "name": "people",
            "outputs": [
                {
                    "internalType": "uint256",
                    "name": "favoriteNumber",
                    "type": "uint256"
                },
                {
                    "internalType": "string",
                    "name": "name",
                    "type": "string"
                }
            ],
            "stateMutability": "view",
            "type": "function"
        },
        {
            "inputs": [],
            "name": "person1",
            "outputs": [
                {
                    "internalType": "uint256",
                    "name": "favoriteNumber",
                    "type": "uint256"
                },
                {
                    "internalType": "string",
                    "name": "name",
                    "type": "string"
                }
            ],
            "stateMutability": "view",
            "type": "function"
        },
        {
            "inputs": [],
            "name": "retrieve",
            "outputs": [
                {
                    "internalType": "uint256",
                    "name": "",
                    "type": "uint256"
                }
            ],
            "stateMutability": "view",
            "type": "function"
        },
        {
            "inputs": [
                {
                    "internalType": "uint256",
                    "name": "_num",
                    "type": "uint256"
                }
            ],
            "name": "store",
            "outputs": [],
            "stateMutability": "nonpayable",
            "type": "function"
        }
    ],
    "bytecode": "600a6080818152610100604052600660c08181526553696d6f6e6560d01b60e090815260a091909152600193845591929161003d9160029190610052565b50505034801561004c57600080fd5b50610126565b82805461005e906100eb565b90600052602060002090601f01602090048101928261008057600085556100c6565b82601f1061009957805160ff19168380011785556100c6565b828001600101855582156100c6579182015b828111156100c65782518255916020019190600101906100ab565b506100d29291506100d6565b5090565b5b808211156100d257600081556001016100d7565b600181811c908216806100ff57607f821691505b6020821081141561012057634e487b7160e01b600052602260045260246000fd5b50919050565b610567806101356000396000f3fe608060405234801561001057600080fd5b506004361061007d5760003560e01c80636057361d1161005b5780636057361d146100b85780636f760f41146100cd5780639e7a13ad146100e0578063b2ac62ef146100f357600080fd5b80632e64cec11461008257806346cb59c214610099578063471f7cdf146100af575b600080fd5b6000545b6040519081526020015b60405180910390f35b6100a161011e565b604051610090929190610476565b61008660005481565b6100cb6100c6366004610441565b600055565b005b6100cb6100db3660046103fc565b6101b5565b6100a16100ee366004610441565b610264565b6100866101013660046103bf565b805160208183018101805160048252928201919093012091525481565b6001805460028054919291610132906104e0565b80601f016020809104026020016040519081016040528092919081815260200182805461015e906104e0565b80156101ab5780601f10610180576101008083540402835291602001916101ab565b820191906000526020600020905b81548152906001019060200180831161018e57829003601f168201915b5050505050905082565b60408051808201909152818152602080820184815260038054600181018255600091909152835160029091027fc2575a0e9e593c00f959f8c92f12db2869c3395a3b0502d05e2516446f71f85b810191825591518051919361023c937fc2575a0e9e593c00f959f8c92f12db2869c3395a3b0502d05e2516446f71f85c0192910190610299565b50505080600483604051610250919061045a565b908152604051908190036020019020555050565b6003818154811061027457600080fd5b60009182526020909120600290910201805460018201805491935090610132906104e0565b8280546102a5906104e0565b90600052602060002090601f0160209004810192826102c7576000855561030d565b82601f106102e057805160ff191683800117855561030d565b8280016001018555821561030d579182015b8281111561030d5782518255916020019190600101906102f2565b5061031992915061031d565b5090565b5b80821115610319576000815560010161031e565b600082601f83011261034357600080fd5b813567ffffffffffffffff8082111561035e5761035e61051b565b604051601f8301601f19908116603f011681019082821181831017156103865761038661051b565b8160405283815286602085880101111561039f57600080fd5b836020870160208301376000602085830101528094505050505092915050565b6000602082840312156103d157600080fd5b813567ffffffffffffffff8111156103e857600080fd5b6103f484828501610332565b949350505050565b6000806040838503121561040f57600080fd5b823567ffffffffffffffff81111561042657600080fd5b61043285828601610332565b95602094909401359450505050565b60006020828403121561045357600080fd5b5035919050565b6000825161046c8184602087016104b0565b9190910192915050565b828152604060208201526000825180604084015261049b8160608501602087016104b0565b601f01601f1916919091016060019392505050565b60005b838110156104cb5781810151838201526020016104b3565b838111156104da576000848401525b50505050565b600181811c908216806104f457607f821691505b6020821081141561051557634e487b7160e01b600052602260045260246000fd5b50919050565b634e487b7160e01b600052604160045260246000fdfea2646970667358221220fc0737be4a5ace47c0ce7c224c4aa6e2c44b364ca9674f08470e0f6417900cd064736f6c63430008070033",
    "sourcePath": "c:/Users/sange/Documents/GitKraken/Solidity/Patrick_Collins_Course/SimpleStorage.sol",
    "compiler": {
        "name": "solc",
        "version": "0.8.7+commit.e28d00a7"
    },
    "functionHashes": {
        "addPerson(string,uint256)": "6f760f41",
        "favoriteNumber()": "471f7cdf",
        "nameToFavouriteNumber(string)": "b2ac62ef",
        "people(uint256)": "9e7a13ad",
        "person1()": "46cb59c2",
        "retrieve()": "2e64cec1",
        "store(uint256)": "6057361d"
    },
    "gasEstimates": {
        "creation": {
            "codeDepositCost": "276600",
            "executionCost": "infinite",
            "totalCost": "infinite"
        },
        "external": {
            "addPerson(string,uint256)": "infinite",
            "favoriteNumber()": "2329",
            "nameToFavouriteNumber(string)": "infinite",
            "people(uint256)": "infinite",
            "person1()": "infinite",
            "retrieve()": "2271",
            "store(uint256)": "22312"
        }
    }
}