{
    "contractName": "StorageFactory",
    "abi": [
        {
            "inputs": [
                {
                    "internalType": "string",
                    "name": "_name",
                    "type": "string"
                },
                {
                    "internalType": "uint256",
                    "name": "_favNum",
                    "type": "uint256"
                }
            ],
            "name": "addPerson",
            "outputs": [],
            "stateMutability": "nonpayable",
            "type": "function"
        },
        {
            "inputs": [],
            "name": "createSimpleStorageContract",
            "outputs": [],
            "stateMutability": "nonpayable",
            "type": "function"
        },
        {
            "inputs": [],
            "name": "favoriteNumber",
            "outputs": [
                {
                    "internalType": "uint256",
                    "name": "",
                    "type": "uint256"
                }
            ],
            "stateMutability": "view",
            "type": "function"
        },
        {
            "inputs": [
                {
                    "internalType": "string",
                    "name": "",
                    "type": "string"
                }
            ],
            "name": "nameToFavouriteNumber",
            "outputs": [
                {
                    "internalType": "uint256",
                    "name": "",
                    "type": "uint256"
                }
            ],
            "stateMutability": "view",
            "type": "function"
        },
        {
            "inputs": [
                {
                    "internalType": "uint256",
                    "name": "",
                    "type": "uint256"
                }
            ],
            "name": "people",
            "outputs": [
                {
                    "internalType": "uint256",
                    "name": "favoriteNumber",
                    "type": "uint256"
                },
                {
                    "internalType": "string",
                    "name": "name",
                    "type": "string"
                }
            ],
            "stateMutability": "view",
            "type": "function"
        },
        {
            "inputs": [],
            "name": "person1",
            "outputs": [
                {
                    "internalType": "uint256",
                    "name": "favoriteNumber",
                    "type": "uint256"
                },
                {
                    "internalType": "string",
                    "name": "name",
                    "type": "string"
                }
            ],
            "stateMutability": "view",
            "type": "function"
        },
        {
            "inputs": [],
            "name": "retrieve",
            "outputs": [
                {
                    "internalType": "uint256",
                    "name": "",
                    "type": "uint256"
                }
            ],
            "stateMutability": "view",
            "type": "function"
        },
        {
            "inputs": [
                {
                    "internalType": "uint256",
                    "name": "_simpleStorageIndex",
                    "type": "uint256"
                }
            ],
            "name": "sfRetrieve",
            "outputs": [
                {
                    "internalType": "uint256",
                    "name": "",
                    "type": "uint256"
                }
            ],
            "stateMutability": "view",
            "type": "function"
        },
        {
            "inputs": [
                {
                    "internalType": "uint256",
                    "name": "_simpleStorageIndex",
                    "type": "uint256"
                },
                {
                    "internalType": "uint256",
                    "name": "_simpleStorageNumber",
                    "type": "uint256"
                }
            ],
            "name": "sfStore",
            "outputs": [],
            "stateMutability": "nonpayable",
            "type": "function"
        },
        {
            "inputs": [
                {
                    "internalType": "uint256",
                    "name": "",
                    "type": "uint256"
                }
            ],
            "name": "simpleStorageArray",
            "outputs": [
                {
                    "internalType": "contract SimpleStorage",
                    "name": "",
                    "type": "address"
                }
            ],
            "stateMutability": "view",
            "type": "function"
        },
        {
            "inputs": [
                {
                    "internalType": "uint256",
                    "name": "_num",
                    "type": "uint256"
                }
            ],
            "name": "store",
            "outputs": [],
            "stateMutability": "nonpayable",
            "type": "function"
        }
    ],
    "bytecode": "600a6080818152610100604052600660c08181526553696d6f6e6560d01b60e090815260a091909152600193845591929161003d9160029190610052565b50505034801561004c57600080fd5b50610126565b82805461005e906100eb565b90600052602060002090601f01602090048101928261008057600085556100c6565b82601f1061009957805160ff19168380011785556100c6565b828001600101855582156100c6579182015b828111156100c65782518255916020019190600101906100ab565b506100d29291506100d6565b5090565b5b808211156100d257600081556001016100d7565b600181811c908216806100ff57607f821691505b6020821081141561012057634e487b7160e01b600052602260045260246000fd5b50919050565b610eb2806101356000396000f3fe608060405234801561001057600080fd5b50600436106100a95760003560e01c8063471f7cdf11610071578063471f7cdf1461010f5780636057361d1461011857806364591bf11461012b5780636f760f41146101565780639e7a13ad14610169578063b2ac62ef1461017c57600080fd5b80630f41a0b9146100ae5780631563700f146100d45780631dda6541146100e95780632e64cec1146100f157806346cb59c2146100f9575b600080fd5b6100c16100bc36600461069f565b6101a7565b6040519081526020015b60405180910390f35b6100e76100e23660046106d1565b610243565b005b6100e76102c7565b6000546100c1565b610101610345565b6040516100cb92919061070f565b6100c160005481565b6100e761012636600461069f565b600055565b61013e61013936600461069f565b6103dc565b6040516001600160a01b0390911681526020016100cb565b6100e761016436600461065a565b610406565b61010161017736600461069f565b6104b5565b6100c161018a36600461061d565b805160208183018101805160048252928201919093012091525481565b6000600582815481106101bc576101bc6107b4565b6000918252602091829020015460408051632e64cec160e01b815290516001600160a01b0390921692632e64cec192600480840193829003018186803b15801561020557600080fd5b505afa158015610219573d6000803e3d6000fd5b505050506040513d601f19601f8201168201806040525081019061023d91906106b8565b92915050565b600060058381548110610258576102586107b4565b600091825260209091200154604051636057361d60e01b8152600481018490526001600160a01b0390911691508190636057361d90602401600060405180830381600087803b1580156102aa57600080fd5b505af11580156102be573d6000803e3d6000fd5b50505050505050565b60006040516102d5906104ea565b604051809103906000f0801580156102f1573d6000803e3d6000fd5b50600580546001810182556000919091527f036b6384b5eca791c62761152d0c79bb0604c104a5fb6f4eb0703f3154bb3db00180546001600160a01b0319166001600160a01b039290921691909117905550565b600180546002805491929161035990610779565b80601f016020809104026020016040519081016040528092919081815260200182805461038590610779565b80156103d25780601f106103a7576101008083540402835291602001916103d2565b820191906000526020600020905b8154815290600101906020018083116103b557829003601f168201915b5050505050905082565b600581815481106103ec57600080fd5b6000918252602090912001546001600160a01b0316905081565b60408051808201909152818152602080820184815260038054600181018255600091909152835160029091027fc2575a0e9e593c00f959f8c92f12db2869c3395a3b0502d05e2516446f71f85b810191825591518051919361048d937fc2575a0e9e593c00f959f8c92f12db2869c3395a3b0502d05e2516446f71f85c01929101906104f7565b505050806004836040516104a191906106f3565b908152604051908190036020019020555050565b600381815481106104c557600080fd5b6000918252602090912060029091020180546001820180549193509061035990610779565b61069c806107e183390190565b82805461050390610779565b90600052602060002090601f016020900481019282610525576000855561056b565b82601f1061053e57805160ff191683800117855561056b565b8280016001018555821561056b579182015b8281111561056b578251825591602001919060010190610550565b5061057792915061057b565b5090565b5b80821115610577576000815560010161057c565b600082601f8301126105a157600080fd5b813567ffffffffffffffff808211156105bc576105bc6107ca565b604051601f8301601f19908116603f011681019082821181831017156105e4576105e46107ca565b816040528381528660208588010111156105fd57600080fd5b836020870160208301376000602085830101528094505050505092915050565b60006020828403121561062f57600080fd5b813567ffffffffffffffff81111561064657600080fd5b61065284828501610590565b949350505050565b6000806040838503121561066d57600080fd5b823567ffffffffffffffff81111561068457600080fd5b61069085828601610590565b95602094909401359450505050565b6000602082840312156106b157600080fd5b5035919050565b6000602082840312156106ca57600080fd5b5051919050565b600080604083850312156106e457600080fd5b50508035926020909101359150565b60008251610705818460208701610749565b9190910192915050565b8281526040602082015260008251806040840152610734816060850160208701610749565b601f01601f1916919091016060019392505050565b60005b8381101561076457818101518382015260200161074c565b83811115610773576000848401525b50505050565b600181811c9082168061078d57607f821691505b602082108114156107ae57634e487b7160e01b600052602260045260246000fd5b50919050565b634e487b7160e01b600052603260045260246000fd5b634e487b7160e01b600052604160045260246000fdfe600a6080818152610100604052600660c08181526553696d6f6e6560d01b60e090815260a091909152600193845591929161003d9160029190610052565b50505034801561004c57600080fd5b50610126565b82805461005e906100eb565b90600052602060002090601f01602090048101928261008057600085556100c6565b82601f1061009957805160ff19168380011785556100c6565b828001600101855582156100c6579182015b828111156100c65782518255916020019190600101906100ab565b506100d29291506100d6565b5090565b5b808211156100d257600081556001016100d7565b600181811c908216806100ff57607f821691505b6020821081141561012057634e487b7160e01b600052602260045260246000fd5b50919050565b610567806101356000396000f3fe608060405234801561001057600080fd5b506004361061007d5760003560e01c80636057361d1161005b5780636057361d146100b85780636f760f41146100cd5780639e7a13ad146100e0578063b2ac62ef146100f357600080fd5b80632e64cec11461008257806346cb59c214610099578063471f7cdf146100af575b600080fd5b6000545b6040519081526020015b60405180910390f35b6100a161011e565b604051610090929190610476565b61008660005481565b6100cb6100c6366004610441565b600055565b005b6100cb6100db3660046103fc565b6101b5565b6100a16100ee366004610441565b610264565b6100866101013660046103bf565b805160208183018101805160048252928201919093012091525481565b6001805460028054919291610132906104e0565b80601f016020809104026020016040519081016040528092919081815260200182805461015e906104e0565b80156101ab5780601f10610180576101008083540402835291602001916101ab565b820191906000526020600020905b81548152906001019060200180831161018e57829003601f168201915b5050505050905082565b60408051808201909152818152602080820184815260038054600181018255600091909152835160029091027fc2575a0e9e593c00f959f8c92f12db2869c3395a3b0502d05e2516446f71f85b810191825591518051919361023c937fc2575a0e9e593c00f959f8c92f12db2869c3395a3b0502d05e2516446f71f85c0192910190610299565b50505080600483604051610250919061045a565b908152604051908190036020019020555050565b6003818154811061027457600080fd5b60009182526020909120600290910201805460018201805491935090610132906104e0565b8280546102a5906104e0565b90600052602060002090601f0160209004810192826102c7576000855561030d565b82601f106102e057805160ff191683800117855561030d565b8280016001018555821561030d579182015b8281111561030d5782518255916020019190600101906102f2565b5061031992915061031d565b5090565b5b80821115610319576000815560010161031e565b600082601f83011261034357600080fd5b813567ffffffffffffffff8082111561035e5761035e61051b565b604051601f8301601f19908116603f011681019082821181831017156103865761038661051b565b8160405283815286602085880101111561039f57600080fd5b836020870160208301376000602085830101528094505050505092915050565b6000602082840312156103d157600080fd5b813567ffffffffffffffff8111156103e857600080fd5b6103f484828501610332565b949350505050565b6000806040838503121561040f57600080fd5b823567ffffffffffffffff81111561042657600080fd5b61043285828601610332565b95602094909401359450505050565b60006020828403121561045357600080fd5b5035919050565b6000825161046c8184602087016104b0565b9190910192915050565b828152604060208201526000825180604084015261049b8160608501602087016104b0565b601f01601f1916919091016060019392505050565b60005b838110156104cb5781810151838201526020016104b3565b838111156104da576000848401525b50505050565b600181811c908216806104f457607f821691505b6020821081141561051557634e487b7160e01b600052602260045260246000fd5b50919050565b634e487b7160e01b600052604160045260246000fdfea2646970667358221220fc0737be4a5ace47c0ce7c224c4aa6e2c44b364ca9674f08470e0f6417900cd064736f6c63430008070033a2646970667358221220ac4a0c86ce4f7a7f483a4316a88409c8294a7a9856a5a8eae92c7f4e946cd03c64736f6c63430008070033",
    "sourcePath": "c:/Users/sange/Documents/GitKraken/Solidity/Patrick_Collins_Course/StorageFactory.sol",
    "compiler": {
        "name": "solc",
        "version": "0.8.7+commit.e28d00a7"
    },
    "functionHashes": {
        "addPerson(string,uint256)": "6f760f41",
        "createSimpleStorageContract()": "1dda6541",
        "favoriteNumber()": "471f7cdf",
        "nameToFavouriteNumber(string)": "b2ac62ef",
        "people(uint256)": "9e7a13ad",
        "person1()": "46cb59c2",
        "retrieve()": "2e64cec1",
        "sfRetrieve(uint256)": "0f41a0b9",
        "sfStore(uint256,uint256)": "1563700f",
        "simpleStorageArray(uint256)": "64591bf1",
        "store(uint256)": "6057361d"
    },
    "gasEstimates": {
        "creation": {
            "codeDepositCost": "752400",
            "executionCost": "infinite",
            "totalCost": "infinite"
        },
        "external": {
            "addPerson(string,uint256)": "infinite",
            "createSimpleStorageContract()": "infinite",
            "favoriteNumber()": "2284",
            "nameToFavouriteNumber(string)": "infinite",
            "people(uint256)": "infinite",
            "person1()": "infinite",
            "retrieve()": "2348",
            "sfRetrieve(uint256)": "infinite",
            "sfStore(uint256,uint256)": "infinite",
            "simpleStorageArray(uint256)": "4658",
            "store(uint256)": "22334"
        }
    }
}